:020000040800F2
:10000000700600209D010008374F0008E514000825
:10001000354F0008DD0400085559000800000000B5
:100020000000000000000000000000003B4F00083E
:10003000DF04000800000000394F000801560008E6
:10004000B7010008B7010008B7010008B7010008B0
:10005000B7010008B7010008B7010008B7010008A0
:10006000B7010008B7010008B7010008B701000890
:10007000B7010008B7010008B7010008B701000880
:10008000B7010008B7010008B7010008B701000870
:10009000B7010008B7010008B7010008B701000860
:1000A000B7010008B7010008B7010008B701000850
:1000B000B7010008B7010008B7010008B701000840
:1000C000B7010008B7010008B7010008B701000830
:1000D000B701000849590008B7010008B701000836
:1000E000B7010008B7010008B7010008B701000810
:1000F000B7010008B7010008B7010008B701000800
:10010000B7010008B7010008B7010008B7010008EF
:10011000B7010008B7010008B7010008B7010008DF
:10012000B7010008B7010008B7010008B7010008CF
:10013000B7010008B7010008B7010008B7010008BF
:10014000B7010008B7010008B7010008B7010008AF
:10015000B7010008B7010008B7010008B70100089F
:10016000B7010008B7010008B7010008B70100088F
:10017000B7010008B7010008B7010008000000003F
:10018000B7010008B7010008DFF80CD000F094F9BF
:1001900000480047955C000870060020064880472C
:1001A00006480047FEE7FEE7FEE7FEE7FEE7FEE75C
:1001B000FEE7FEE7FEE7FEE7995600088901000822
:1001C0002DE9F05F0546002092469B46884606468C
:1001D000814640241BE0284641464746224600F01F
:1001E000FEF853465A46C01A914110D3114618469C
:1001F000224600F0E5F82D1A67EB01084F4622462B
:100200000120002100F0DCF817EB00094E41201E10
:10021000A4F10104DFDC484631462A464346BDE8E6
:10022000F09F00000649074A0868504343F239022C
:10023000104408604008704701490860704700009A
:10024000200000206D4EC64140EA01039B0703D009
:1002500009E008C9121F08C0042AFAD203E011F805
:10026000013B00F8013B521EF9D27047D2B201E0C7
:1002700000F8012B491EFBD270470022F6E710B5AB
:1002800013460A4604461946FFF7F0FF204610BD04
:100290002DE9FE4F81EA030404F0004421F00041FF
:1002A00000944FF0000B23F0004350EA01045ED0AD
:1002B00052EA03045BD0C3F30A54C1F30A552C4439
:1002C000A4F2F3340194A0FB0254C1F3130141F4EE
:1002D0008011C3F3130343F4801301FB024400FBBA
:1002E000034E840A970A44EA815447EA8357A4FBE1
:1002F000076802958D0A05FB07854FEA932C04FBDE
:100300000C542705029D4FEA065847EA1637B5EB0D
:1003100008056EEB070C870E920E47EA811742EA3A
:100320008312A7FB0201B6EB0B0164EB00042B0D5B
:1003300043EA0C335E1844EB1C50DA465146E7FBA7
:100340000201C5F313044FEA0B3343EA14534FEA97
:100350000432019C43EA0603A4F10C040294009CBD
:10036000CDE900B400F05AF803B0BDE8F08F0020EA
:100370000146F9E70EB540F2334102910021CDE983
:1003800000110A460B4600F049F803B000BDC1F366
:100390000A5210B5C1F3130140F2FF3341F480114A
:1003A0009A4201DA002010BD40F233439A42A2F291
:1003B000334203DC524200F012F810BD904010BDF1
:1003C000202A04DB203A00FA02F100207047914015
:1003D000C2F1200320FA03F3194390407047202A0A
:1003E00004DB203A21FA02F00021704721FA02F3DF
:1003F000D040C2F12002914008431946704710B521
:10040000141E73F1000408DA401C41F10001921837
:100410005B411A4301D120F0010010BD2DE9F04DE0
:1004200092469B4611B1B1FA81F202E0B0FA80F235
:1004300020329046FFF7C4FF04460F4640EA0A0008
:1004400041EA0B0153465A46084313D0114653EA7A
:10045000010019D0C8F140025046FFF7C0FF054621
:100460000E46504659464246FFF7AAFF084305D0BC
:10047000012004E020463946BDE8F08D0020054308
:1004800046EAE0762C4337430A986305E40AA0EB7A
:1004900008000022FD0A44EA47540A3002D5002031
:1004A0000146E9E7010510196941DDE90845001930
:1004B0006941BDE8F04DA2E7064C074D06E0E06853
:1004C00040F0010394E8070098471034AC42F6D39B
:1004D000FFF75EFE40A4000860A40008FEE7704736
:1004E000F8B500EB80000A2202EB400501EB810029
:1004F000142101EB40044FF478400090E01D83B2DA
:10050000E81D82B2A61CA81CB1B280B201F0B0FAFC
:1005100000200090281D82B2641CED1CB3B2A1B271
:10052000A8B201F0A5FAF8BDF8B500EB80000A23E7
:1005300003EB400401EB8100142101EB400505F1C0
:10054000080604F1080700926D1C641CB3B2BAB22D
:10055000A9B2A0B201F08CFA01B0B3B2BAB2A9B29A
:10056000A0B2BDE8F04001F09DB972B6FEE7000010
:1005700030B5B3F5804F05D06FF0704140F82210D0
:10058000002030BD8C690B688D6823434C688989D5
:10059000240144EA0524234343EA014150F8223070
:1005A000014C23401943E9E70000F0CF10B50A6879
:1005B00050F8223023F0010340F822308C68082CD8
:1005C00023D000234A682243CC681C430B69224392
:1005D0001A434B690E4C1A43CB691A430B6A1A43F0
:1005E0004B6A1A438B6A1A43CB6A1A430B6B1A4342
:1005F0008B691343CA6B09681A4350F82130A3432F
:10060000134340F82130002010BD4023DAE70000FA
:100610007FFF0F0030B5D1E9003443EA04138C6842
:100620008D89240244EA054423430C8A094D00EBDA
:10063000820005EB045423430C7D6D0105EB04643B
:10064000896923430B43416801F040410B434360F8
:10065000002030BD0000F0FF2DE9F0410446876D19
:1006600000F0BEF9064694F835000025022806D0B1
:100670008020606584F834500120BDE8F081206856
:10068000016821F0160101602068416921F08001B4
:100690004161206C08B9A06C20B12068016821F08C
:1006A000080101602068016821F0010101600CE08F
:1006B00000F096F9801B052807D9202060650320EB
:1006C00084F8350084F83450D7E720680068C00704
:1006D000EED194F85C103F208840B860012084F887
:1006E000350084F834500020C7E790F8351002290F
:1006F00003D08021416501207047052180F8351025
:100700000068016821F001010160002070470000CD
:1007100070B5044600F064F90546601C02D0044838
:100720000078044400F05CF9401BA042FAD370BD8D
:10073000080000202DE9F04186B014216846FFF73B
:100740009CFD20480168002939D1012101601E4823
:100750000024016841F00101016000684FF48058F5
:1007600000F001000C27CDF80080CDE904700326CD
:1007700002250396CDE901546946144800F02EF88D
:100780004FF68070CDE9000502AA694682E8D000E4
:100790000F4800F023F84CF23370CDE9000502AAAF
:1007A000694682E8D0000B4800F018F802AA6946B2
:1007B00082E8D000CDE90085074800F00FF806B0C8
:1007C000BDE8F081000000203838024000140240EB
:1007D00000100240000C0240001802402DE9F84FC2
:1007E000DFF8BCA10022012503264FF00F090AF112
:1007F000040BAAF1040E00BF0B6805FA02F42340B3
:10080000A34270D10F7907F00307012F01D0022F07
:1008100016D187684FEA420806FA08FC27EA0C0757
:10082000D1F80CC00CFA08FC4CEA070CC0F808C060
:100830004768A7430C79C4F3001494403C434460D8
:100840000C79E443A4070AD0C4684FEA420C06FAC4
:100850000CF7BC438F6807FA0CF72743C7600C7985
:1008600004F00304022C12D1D40800EB840CDCF851
:1008700020405707FF0E09FA07F824EA0804D1F8C8
:10088000108008FA07F848EA0408CCF820800468C9
:100890004FEA420C06FA0CF7BC430F7907F0030746
:1008A00007FA0CF7274307604C6814F4403F70D0F8
:1008B0003C4C276847F480472760246822F00307F0
:1008C00004F480440094384C07EB040CDCF808482E
:1008D00097074FEA177809FA08F7BC43334FB84235
:1008E00002D1002724E054E0314FB84201D1012762
:1008F0001EE0304FB84201D1022719E02E4FB84216
:1009000001D1032714E02D4FB84201D104270FE095
:100910002B4FB84201D105270AE02A4FB84201D136
:10092000062705E0284FB84201D1072700E0082735
:1009300007FA08F72743CCF80878DAF8004057465A
:10094000D1F804C09C435FEACC2C00D51C433C602A
:10095000DBF800405F46D1F804C09C435FEA8C2C72
:1009600000D51C433C60DEF800407746D1F804C057
:100970009C435FEA8C3C00D51C433C60084F083F19
:100980003C68D1F804C09C435FEACC3C00D51C43D2
:100990003C60521C102AFFF42FAFBDE8F88F000016
:1009A000083C014044380240003001400000024051
:1009B0000004024000080240000C02400010024007
:1009C0000014024000180240001C02400069084068
:1009D00000D0012070470AB1816170470904FBE72C
:1009E00001488068704700000800002002488168C4
:1009F0000278114481607047080000200B4810B550
:100A0000016841F400710160016841F48061016096
:100A1000016841F480710160032000F06FF80F203D
:100A200000F006F800F024F8002010BD003C024061
:100A300070B50D4D04464FF47A712878B1FBF0F093
:100A40000A490968B1FBF0F000F03CFB48B9102CF2
:100A500007D200222146501E00F030F800206C60C2
:100A600070BD012070BD00000800002014000020AF
:100A70000A4808B5016841F480410160006800F44B
:100A8000804000900548001F016841F080510160DE
:100A9000006800F08050009008BD0000443802401B
:100AA000002809DB00F01F0201219140400980006D
:100AB00000F1E020C0F8001170470000F0B40E4BC8
:100AC0001B680C46C3F30223C3F10705042D00D9AC
:100AD0000425191D072901D2002300E0DB1E012691
:100AE00006FA05F1491E214099409E40761E1640A7
:100AF0003143F0BC04F040BF0CED00E0064900F0CB
:100B0000070208684FF6FF03184040EA0220034A34
:100B100010430860704700000CED00E00000FA058B
:100B20002DE9F0470E46050065D0DFF81481D8F8AE
:100B30000000F7B200F00700B04207D288F800705A
:100B4000D8F8000000F00700B04254D128683D4CAE
:100B5000810712D5400703D5206840F4E05020609B
:100B60002878000703D5206840F4604020602068A2
:100B7000A96820F0F000084320602878C0072DD035
:100B8000304968680839012812D0022813D0032898
:100B900011D00968890700292DDA216821F00301A5
:100BA00001432160FFF71CFF814641F2883A0EE0C5
:100BB00009688903EFE709688901ECE7FFF710FF8F
:100BC000A0EB0901514502D90320BDE8F087206858
:100BD000696800F00C00B0EB810FEFD1D8F800107D
:100BE000404601F00701B14207D90770006800F0E4
:100BF0000700B04201D00120E7E72878400705D57B
:100C00002068E96820F4E050084320602878000755
:100C100006D52068296920F4604040EAC1002060C0
:100C200000F038F82168084AC1F30311515CC8404C
:100C30000649086006480068FFF7FAFE0020C4E78E
:100C4000003C024008380240B65C00081400002056
:100C50000C0000200448054900680968044AC1F3F3
:100C60008221515CC84070471400002008380240BF
:100C7000C65C00080448054900680968044AC1F3D5
:100C80004231515CC84070471400002008380240CF
:100C9000C65C0008154810B5006810F00C02144836
:100CA00013D01449042A0FD0082A0ED10F4C241F48
:100CB0002268236802F03F025B0207D52068C0F378
:100CC0008810A0FB010106E0084610BD2168C1F3B1
:100CD0008811A1FB00010023FFF772FA2168C1F31C
:100CE0000141491C4900B0FBF1F010BD0838024039
:100CF0000024F40040787D012DE9F84F04006ED007
:100D00002078DFF84C93C007A9F104054AD009F117
:100D100004000168C1F38101012908D00068C0F313
:100D2000810002280AD1D9F80000400206D52868BF
:100D3000800337D560680028E1D033E06068B0F503
:100D4000803F10D0B0F5A02F286810D020F480305C
:100D50002860286820F4802028606068A8B1FFF728
:100D60003FFE06460DE0286840F48030F4E740F48A
:100D700080202860F7E700BFFFF732FE801B642861
:100D800073D828688003F7D50CE0FFF729FE0646E4
:100D900005E000BFFFF724FE801B6428F0D8286818
:100DA0008003F7D42078DFF8AC8280074FF0000A88
:100DB0003ED5A748001D016811F00C0F08D000684F
:100DC000C0F3810002280BD1D9F80000400207D4FB
:100DD0002868800716D5E068012800D112E033E1C9
:100DE000E068B8B10120C8F80000FFF7F9FD064639
:100DF00005E000BFFFF7F4FD801B0228C0D828687B
:100E00008007F7D52868216920F0F80040EAC10082
:100E100028600DE0C8F800A0FFF7E2FD064604E0F8
:100E2000FFF7DEFD801B02281FD828688007F7D453
:100E30002078000722D5864F87486169703771B1E5
:100E400001210160FFF7CCFD064604E0FFF7C8FD75
:100E5000801B022809D838688007F7D50EE0C0F853
:100E600000A0FFF7BDFD064605E082E0FFF7B8FDF4
:100E7000801B02287DD838688007F7D42078400787
:100E800068D5DFF8CCB100270BF13C0BDBF8000094
:100E9000C0000BD4DBF8001041F08051CBF80010FB
:100EA000DBF80000012700F0805000906B4E3068A6
:100EB000C00510D4306840F480703060FFF790FDBA
:100EC000009005E0FFF78CFD0099401A022850D8E9
:100ED0003068C005F6D55E4EA0686C3601280FD08C
:100EE0000528306810D020F001003060306820F014
:100EF00004003060A068B8B1FFF772FD00900FE009
:100F0000306840F00100F4E740F004003060F7E79B
:100F1000FFF766FD0099411A41F28830814266D898
:100F200030688007F4D50EE0FFF75AFD009007E027
:100F3000FFF756FD0099411A41F28830814256D898
:100F400030688007F4D42FB1DBF8001021F0805115
:100F5000CBF80010A069C8B33D49091D0968C1F369
:100F6000810102294AD00228504607D0C8F8600003
:100F700000E03CE0FFF734FD04463BE04746C8F89C
:100F80006000FFF72DFD064605E000BFFFF728FDD6
:100F9000801B02282BD828688001F7D4D4E90701E8
:100FA0000843A16A2E4A490802EB0141626A41EAFC
:100FB0008211084394F82C1040EA0161C9F800102E
:100FC00001203866FFF70CFD044606E03EE000BF56
:100FD000FFF706FD001B022809D828688001F7D515
:100FE00034E000BFFFF7FCFC001B022802D90320FD
:100FF000BDE8F88F28688001F4D427E00128F7D0F5
:10100000D9F80000E26900F4800191421CD1226A03
:1010100000F03F01914217D147F6C071626A01406A
:10102000B1EB821F10D1A26A4FF0FF3300F44031C0
:1010300003EB5202B1EB024F06D194F82C1000F0F2
:101040007060B0EB016F01D00120D1E70020CFE745
:101050000438024000004742800E474200700040C2
:101060000000FFFF70B515460E46040003D094F84B
:10107000490010B107E0012070BD002084F848004D
:10108000204600F01DF804F108012068FFF78EFAF1
:101090003146A2682068FFF7BDFAD4E9010229466B
:1010A000236BFFF765FA2168A06851F8202042F011
:1010B000010241F82020012084F84900002070BD81
:1010C000FFF738BB10B5401EB0F1807F01D301207F
:1010D00010BD4FF0E02460610F21601704F04CFC5C
:1010E0000020A06107202061002010BD70477047DC
:1010F000F8B5016804460868CA684B6910F00F0F1C
:101100004FF0000559D003F0010602F49077374301
:1011100065D0C10705D0D10503D5616C41F001014F
:101120006164410705D5D90703D0616C41F0020124
:101130006164810705D5D90703D0616C41F00401D2
:101140006164010707D502F02001314303D0616CCF
:1011500041F008016164616C00293AD0800604D531
:10116000900602D5204604F0CEFA20684069616CF2
:10117000C0F38010090700D460B3204604F09CFA45
:1011800020684069400621D52068143050E8001FCF
:1011900021F0400140E80012002AF5D1E06BA8B12F
:1011A0006E490165E06BFFF7A0FA002811D0E06BF3
:1011B000016D01B0BDE8F040084783060FD59306E6
:1011C0000DD52046BDE8F84004F09DBA2046FFF753
:1011D0008EFFF8BD2046FFF78AFF6564F8BD266BD9
:1011E0002023012E7DD1C6067BD5D60679D5086889
:1011F0004868009048694FF00206400641D5E16B0F
:10120000086840680004000CE8D0A28D8242E5D94D
:10121000E085C869B0F5807F2DD020680C3050E89B
:10122000001F21F4807140E80012002AF5D12068E7
:10123000143050E8001F21F0010140E80012002A9C
:10124000F5D12068143050E8001F21F0400140E83B
:101250000012002AF5D184F84230256320680C3052
:1012600050E8001F21F0100140E80012002AF5D1DB
:10127000E06BFFF7F1F96663A08DE18D401A81B252
:101280002AE0A08DE18D401A81B2E08D0028A5D022
:101290000029A3D022680C3252E8000F20F490708D
:1012A00042E80007002FF5D12068143050E8002FE5
:1012B00022F0010240E80027002FF5D184F84230E7
:1012C000256320680C3050E8002F22F0100240E81F
:1012D0000023002BF5D166632046FFF707FFF8BD1A
:1012E000FFE705062BD5150629D594F841002128DE
:1012F000F5D1A068B0F5805F01D12069B0B1206A56
:10130000411C2162216800784860E08C401E000486
:10131000000CE084E3D12068C16821F08001C16045
:101320002068C16841F04001C160D8E7206A0088A8
:10133000C0F308004860206A801C2062E5E7400690
:10134000CDD55006CBD5CA68204622F04002CA60EF
:1013500084F8413000F0C5F8C1E70000A956000844
:1013600070B5040004D094F84100002510B106E0E7
:10137000012070BD84F84050204600F023F824205E
:1013800084F841002068C16821F40051C160204602
:1013900004F01AFA2068016921F490410161206883
:1013A000416921F02A0141612068C16841F400517E
:1013B000C1606564202084F8410084F842006563C0
:1013C000002070BD10B586B0044614216846FEF7B3
:1013D00054FF18492068884229D117480021026823
:1013E00042F010020260006800F010000590124800
:1013F0001438026842F001020260006800F0010047
:1014000005904FF4C06000900220CDE90101032057
:1014100003900720049069460848FFF7DFF900228F
:1014200011462520FFF74AFB2520FFF739FB06B0C0
:1014300010BD00000010014044380240000002408E
:1014400070472DE9F843044690F841009846164647
:101450000D46202802D00220BDE8F88385B17EB178
:1014600000206064212084F84100FFF7B9FAA684C7
:101470008146E684A0682027B0F5805F02D003E0B3
:101480000120E9E7206910B12E4600250EE0002674
:101490000CE08021204604F01DFAA8B9C6B116F868
:1014A000010B21684860E08C401EE084E08C4B46D4
:1014B0004FF00002CDF800800028EAD14FF0400143
:1014C000204604F007FA40B184F841700320C3E7D6
:1014D00035F8020BC0F30800E3E784F84170002000
:1014E000BAE77047FEE7000070B50B4D00241021ED
:1014F0002846FFF76BFA60B91420FFF709F91021AD
:101500002846FFF763FA0028F9D01420FFF700F906
:101510000124204670BD00000010024070B50B4D44
:10152000002408212846FFF751FA60B91420FFF77C
:10153000EFF808212846FFF749FA0028F9D01420CF
:10154000FFF7E6F80124204670BD000000100240BD
:1015500070B50B4D002404212846FFF737FA60B917
:101560001420FFF7D5F804212846FFF72FFA0028AA
:10157000F9D01420FFF7CCF80124204670BD0000FC
:101580000010024070B50B4D002401212846FFF7E2
:101590001DFA01280CD11420FFF7BAF801212846C2
:1015A000FFF714FA0128F9D01420FFF7B1F801244D
:1015B000204670BD000002402DE9F0431A4C8146E0
:1015C0000025208866884643A088A0F5D0410439CC
:1015D00003D0A0F51441813902D1A07901280AD0A5
:1015E0000021084603F002FA03F0B4FB1FFA89F069
:1015F0004FF0D84113E00020A0712A2767814FF0F7
:101600002B08A4F80C80014603F0F0F90120A0712A
:10161000A4F80A80A781E7E7A1F880006D1CB54215
:10162000FAD3BDE8F0830000C00000202DE9F04FA0
:101630006D492A242B25F027898847F2897945F2BC
:10164000105A4FF4305B4FF4285E4FF4487649F25D
:10165000413C4FF4A0737A0080B363484FF0010817
:10166000614580F806800380478022D0A1F5A64717
:10167000103F1ED049451CD0A1F51447863F18D015
:10168000A1F51447883F14D0A1F5EE47963F10D03E
:10169000A1F5D047043F72D0A1F51447813F6ED029
:1016A000514570D1A0F808B0A0F80AE02C0284815E
:1016B00090E02C260681448185816EE0FFE74A4850
:1016C0004FF00008614580F806800780438023D0F2
:1016D000A1F5D047043F1FD0A1F5A647103F1BD06E
:1016E000A1F51447813F17D0494515D0A1F51447FE
:1016F000863F11D0A1F51447883F0DD0A1F5EE47E4
:10170000963F09D0514526D1A0F808B0A0F80AE0CC
:101710004FF42C5181812DE02C2606814481A1F5C6
:10172000D0448581043C13D0A1F5A644103C0FD0D1
:10173000A1F51444813C0BD0A1F51444863C07D09C
:10174000A1F51444883C03D0A1F5EE44963C46D163
:101750000380428043E0A1F5C853633B06D02221B9
:101760000181202141812121818138E02C210181C9
:10177000458184810280468031E000E003E02C2630
:101780000681458108E0A1F5C857633F1ED0222499
:1017900004812124448120248481A1F5D044043C87
:1017A0001BD0A1F5A644103C17D0A1F51444813CF0
:1017B00013D0A1F51444863C0FD0A1F51444883C05
:1017C0000BD0A1F5EE44963C07D008E02C2707810A
:1017D0004481858106804280DFE702804380BDE846
:1017E000F04F002002F0DCBFC00000202DE9FE4FCA
:1017F000161ACDE900104FF000085D1A47464FF069
:10180000FF30002E02DD4FF0010102E003D14FF066
:1018100000018B4602E08346C6F10006002D02DD82
:101820004FF0010002E003D14FF00000824602E0D9
:101830008246C5F10005AE4201DD344600E02C468B
:10184000601C4FF00009029018E0009881B20198E6
:1018500080B200F019F8B0442F44A04504DD01988F
:10186000A8EB040858440190A74203DD00983F1BF1
:101870005044009009F101001FFA80F9029989454E
:10188000E3DDBDE8FE8F000000B503F0AFF803F024
:1018900061FA03484FF0D8410088A1F8800000BDEC
:1018A00018000020F0B51C4615460E4607460B46AC
:1018B000FFF79CFF3A46234631461046FFF796FF56
:1018C00023462A4619463846FFF790FF2A46234604
:1018D0003146BDE8F0401046FFF788BF2DE9F047DC
:1018E000624C92460D4602464FEA1129A0882146D5
:1018F000A0F513464B894FEA1228413E2BD0A0F5A4
:10190000A641103927D0A0F5EE41893923D0A0F5A2
:10191000EE4196391FD0A0F5AA41103920D02646B5
:10192000A0F5C857B1793688B61A761E633F32D013
:10193000A0F5D047043F4AD0A0F51447813F46D0D8
:10194000A0F51447863F55D0A0F51447883F51D0E5
:10195000012979D079E0184603F0EFF940463DE0DF
:10196000184603F0EAF9404603F0DBF96089401CB1
:1019700080B203F0E2F9D0B203F0D3F9A08903F00A
:10198000DCF9484603F0CDF9A089401C80B203F091
:10199000D4F9E8B254E001B9B2B2184603F0CDF977
:1019A000160A304603F0BDF9D0B203F0BAF930465A
:1019B00003F0B7F9D0B203F0B4F9A08903F0BDF990
:1019C000484603F0AEF9E8B203F0ABF90EE00129A6
:1019D00000D1B2B2184603F0B0F9100A03F0A1F931
:1019E000D0B203F09EF9A08903F0A7F9484603F0AE
:1019F00098F9CEE7184603F0A0F9404603F091F9B4
:101A0000D0B203F08EF92088401EC0F30F2003F0FF
:101A100088F92078401EC0B203F083F9A08903F052
:101A20008CF9484603F07DF9E8B203F07AF9608852
:101A3000401EC0F30F2003F074F9A078401EC0B21E
:101A400003F06FF909E0FFE7B2B21146184603F060
:101A50008BF9A089294603F087F94FF0D8402189F6
:101A600020F87E1FA0F802A0BDE8F087C00000208B
:101A70002DE9F843234C80461E46A088089FA0F518
:101A8000D043043B03D0A0F51443813B02D1A0799D
:101A9000012808D0A2EB0800401C84B20D46BFB25A
:101AA0004FF0D8492AE025880846A91AA5EB080373
:101AB0000025A57132462A2565812B26491E5B1E0D
:101AC000A68189B29BB20097FFF7D2FF0120A071D7
:101AD0006681A581BDE8F8832946404602F086FF6D
:101AE00003F038F90020494604E000BFA1F88070F7
:101AF000401C80B2A042F9D36D1CADB2B542EBD907
:101B0000E8E70000C00000202DE9F05F3220FEF77A
:101B1000FFFD0121002003F027F93220FEF7F8FD38
:101B2000002002F00BFEFE4A47F2897549F2864A10
:101B3000908049F2884B4FF0204849F2413945F2F4
:101B4000103645F2105441F66317FF2806D3A0F56E
:101B50007F41FF3902D0B0F5134F7CD1D32003F081
:101B6000ECF802F0E1FD908002F0DEFD908002F0E2
:101B7000DBFD4FF6FF7101EA0020908002F0D4FDFA
:101B8000918808439080484565D0504563D05845BA
:101B900061D0A0F5EE4196395DD0042003F0CDF878
:101BA00002F0C2FD908002F0BFFD908002F0BCFD0B
:101BB0004FF6FF7101EA0020908002F0B5FD918898
:101BC0000843A0F50541908052397DD0A8426ED0DF
:101BD000BF2003F0B2F802F0A7FD908002F0A4FD50
:101BE000908002F0A1FD908002F09EFD4FF6FF7103
:101BF00001EA0020908002F097FD91880843A0F54B
:101C0000D0419080043952D0A0F5144181394ED092
:101C1000D42003F092F802F087FD908002F084FD5A
:101C2000908002F081FD4FF6FF7101EA0020908064
:101C300002F07AFD918808439080B04237D04FF48B
:101C40005A4003F07AF802F06FFD90804FF45B4049
:101C500003F073F800E02AE002F066FD4FF6FF7132
:101C600001EA002090804FF45C4003F066F802F037
:101C70005BFD918808439080B0F5004F39D0A042B9
:101C800015D0A12003F059F802F04EFD908002F02B
:101C90004BFD4FF6FF7101EA0020908002F044FDF9
:101CA00091880843A0F5AE41908061391FD080B281
:101CB00048451FD0B0421DD0A0421BD0B84219D019
:101CC000A84217D0504500E00FE013D0584511D07E
:101CD000A0F5EE4196390DD0A0F5D041043921D0C0
:101CE000A0F5454105391DD035E0958002E097808B
:101CF00000E09480D8F81C11404621F00F01C8F88C
:101D00001C11D8F81C1121F47061C8F81C11D8F806
:101D10001C1141F00301C8F81C11D8F81C1141F442
:101D2000007116E0D8F81C11404621F00F01C8F8E8
:101D30001C11D8F81C1121F47061C8F81C11D8F8D6
:101D40001C1141F00A01C8F81C11D8F81C1141F40B
:101D50004061C0F81C117248818872A003F0FCFD3C
:101D60006F48808848457CD1CF2002F0E6FF0020F4
:101D700002F0D7FFC12002F0D4FF302002F0D1FFE3
:101D8000ED2002F0DAFF642002F0CBFF032002F026
:101D9000C8FF122002F0C5FF812002F0C2FFE82038
:101DA00002F0CBFF852002F0BCFF102002F0B9FF4B
:101DB0007A2002F0B6FFCB2002F0BFFF392002F0FC
:101DC000B0FF2C2002F0ADFF002002F0AAFF34206B
:101DD00002F0A7FF022002F0A4FFF72002F0ADFFFF
:101DE000202002F09EFFEA2002F0A7FF002002F070
:101DF00098FF002002F095FFC02002F09EFF1B20FC
:101E000002F08FFFC12002F098FF012002F089FF4D
:101E1000C52002F092FF302002F083FF302002F054
:101E200080FFC72002F089FFB72002F07AFF36203A
:101E300002F083FF482002F074FF3A2002F07DFF99
:101E4000552002F06EFFB12002F077FF002002F073
:101E500068FF1A2002F065FFB62002F06EFF0A202C
:101E600000E098E002F05DFFA22002F05AFFF220AD
:101E700002F063FF002002F054FF262002F05DFF15
:101E8000012002F04EFFE02002F057FF0F2002F089
:101E900048FF2A2002F045FF282002F042FF0820D8
:101EA00002F03FFF0E2002F03CFF082002F039FF55
:101EB000542002F036FFA92002F033FF432002F045
:101EC00030FF0A2002F02DFF0F2002F02AFF002031
:101ED00002F027FF002002F024FF002002F021FF83
:101EE000002002F01EFFE12002F027FF002002F098
:101EF00018FF152002F015FF172002F012FF07202F
:101F000002F00FFF112002F00CFF062002F009FF83
:101F10002B2002F006FF562002F003FF3C2009E0D0
:101F2000C0000020204C43442049443A25780D0A43
:101F30000000000002F0F5FE052002F0F2FE102085
:101F400002F0EFFE0F2002F0ECFE3F2002F0E9FE6F
:101F50003F2002F0E6FE0F2002F0E3FE2B2002F00D
:101F6000ECFE002002F0DDFE002002F0DAFE01208F
:101F700002F0D7FE3F2002F0D4FE2A2002F0DDFE60
:101F8000002002F0CEFE002002F0CBFE002002F086
:101F9000C8FEEF20DEE2A8427ED1112002F0CDFE85
:101FA0007820FEF7B5FB362002F0C7FE002002F0D5
:101FB000B8FE3A2002F0C1FE052002F0B2FEB220C7
:101FC00002F0BBFE0C2002F0ACFE0C2002F0A9FED9
:101FD000002002F0A6FE332002F0A3FE332002F020
:101FE000A0FEB72002F0A9FE352002F09AFEBB2029
:101FF00002F0A3FE322002F094FEC02002F09DFE0B
:102000000C2002F08EFEC22002F097FE012002F0AA
:1020100088FEC32002F091FE102002F082FEC42050
:1020200002F08BFE202002F07CFEC62002F085FE2E
:102030000F2002F076FED02002F07FFEA42002F0F6
:1020400070FEA12002F06DFEE02002F076FED020AE
:1020500002F067FE002002F064FE022002F061FE42
:10206000072002F05EFE0A2002F05BFE282002F04C
:1020700058FE322002F055FE442002F052FE42206B
:1020800002F04FFE062002F04CFE0E2002F049FE48
:10209000122002F046FE00E053E0142002F041FE60
:1020A000172002F03EFEE12002F047FED02002F0B1
:1020B00038FE002002F035FE022002F032FE07203A
:1020C00002F02FFE0A2002F02CFE282002F029FE4A
:1020D000312002F026FE542002F023FE472002F0B9
:1020E00020FE0E2002F01DFE1C2002F01AFE17201A
:1020F00002F017FE1B2002F014FE1E2002F011FE5B
:102100002A2002F01AFE002002F00BFE002002F04E
:1021100008FE002002F005FEEF2002F002FE2B2058
:1021200002F00BFE002002F0FCFD002002F0F9FDA1
:10213000012002F0F6FD3F2002F0F3FD292002F01D
:10214000F9B9A0F5144181397ED050457DD1F220F6
:1021500002F0F3FD182002F0E4FDA32002F0E1FDFF
:10216000122002F0DEFD022002F0DBFDB22002F0C0
:10217000D8FD122002F0D5FDFF2002F0D2FD102084
:1021800002F0CFFD002002F0CCFDF82002F0D5FDDA
:10219000212002F0C6FD042002F0C3FDF92002F068
:1021A000CCFD002002F0BDFD082002F0BAFD362073
:1021B00002F0C3FD082002F0B4FD3A2002F0BDFD9C
:1021C000052002F0AEFDB42002F0B7FD012002F0C0
:1021D000A8FDB62002F0B1FD022002F0A2FD2220EF
:1021E00002F09FFDC12002F0A8FD412002F099FD00
:1021F000C52002F0A2FD002002F093FD072002F0AE
:1022000090FDE02002F099FD0F2002F08AFD1F20D2
:1022100002F087FD1C2002F084FD0C2002F081FDFD
:102220000F2002F07EFD082002F07BFD482002F026
:1022300078FD982002F075FD372002F072FD0A202B
:1022400002F06FFD132001E03DE0E5E002F069FDE2
:10225000042002F066FD112002F063FD0D2002F063
:1022600060FD002002F05DFDE12002F066FD0F2020
:1022700002F057FD322002F054FD2E2002F051FDF5
:102280000B2002F04EFD0D2002F04BFD052002F068
:1022900048FD472002F045FD752002F042FD372041
:1022A00002F03FFD062002F03CFD102002F039FD57
:1022B000032002F036FD242002F033FD202002F03E
:1022C00030FD002046E1112002F037FD1420FEF71A
:1022D0001FFAD02002F031FD072002F022FD42203B
:1022E00002F01FFD1C2002F01CFDD12002F025FD94
:1022F000002002F016FD102002F013FD102002F065
:1023000010FDD22002F019FD012002F00AFD11207B
:1023100002F007FDE42002F010FDA02002F001FD14
:10232000F32002F00AFD002002F0FBFC2A2002F05C
:10233000F8FCC02002F001FD102002F0F2FC3B206E
:1023400002F0EFFC002002F0ECFC022002F0E9FCBD
:10235000112002F0E6FCC52002F0EFFC032002F0A1
:10236000E0FCC82002F0E9FC002002F0DAFC352095
:1023700002F0D7FC232002F0D4FC072002F0D1FCAD
:10238000002002F0CEFC042002F0CBFC452002F03D
:10239000C8FC532002F0C5FC772002F0C2FC70207C
:1023A00002F0BFFC002002F0BCFC042002F0B9FCEB
:1023B000362002F0C2FC0A2002F0B3FC3A2002F000
:1023C000BCFC552002F0ADFC2A2002F0B6FC002037
:1023D00002F0A7FC002002F0A4FC012002F0A1FC06
:1023E0003F2002F09EFC2B2002F0A7FC002002F010
:1023F00098FC002002F095FC012002F092FCE02005
:1024000002F08FFC7820FEF783F9212002F095FC82
:10241000292002F092FCFCE358457CD1E02002F038
:102420008CFC002002F07DFC1B2002F07AFC1F20B7
:1024300002F077FC0A2002F074FC0F2002F071FC1D
:10244000072002F06EFC3C2002F06BFC382002F00A
:1024500068FC492002F065FC002002F062FC0C20C0
:1024600002F05FFC0B2002F05CFC152002F059FC2E
:10247000172002F056FC0F2002F053FCE12002F07E
:102480005CFC002002F04DFC192002F04AFC1B20ED
:1024900002F047FC042002F044FC0F2002F041FC53
:1024A000042002F03EFC302002F03BFC322002F01F
:1024B00038FC402002F035FC012002F032FC0720FD
:1024C00002F02FFC0E2002F02CFC2B2002F029FC45
:1024D000322002F026FC0F2002F023FCF82002F04C
:1024E0002CFC212002F01DFC042002F01AFCF92033
:1024F00002F023FC002002F014FC082002F011FC82
:10250000362002F01AFC082002F00BFC3A2002F000
:1025100014FC052000E026E002F003FCB42002F0E9
:102520000CFC012002F0FDFBB62002F006FC0220AC
:1025300002F0F7FB222002F0F4FBC12002F0FDFBC9
:10254000412002F0EEFBC52002F0F7FB002002F074
:10255000E8FB072002F0E5FB112002F0EEFB7820FB
:10256000FEF7D6F8EAE5A0F5EE4196397ED0B04206
:1025700041F05E80ED2002F0E0FB012002F0D1FB93
:10258000FE2002F0CEFBEE2002F0D7FBDE2002F0B0
:10259000C8FB212002F0C5FBF12002F0CEFB012098
:1025A00002F0BFFBDF2002F0C8FB102002F0B9FBF5
:1025B000C42002F0C2FB8F2002F0B3FBC62002F061
:1025C000BCFB002002F0ADFBE22002F0AAFBE220FF
:1025D00002F0A7FBE22002F0A4FBBF2002F0ADFB5B
:1025E000AA2002F09EFBB02002F0A7FB0D2002F013
:1025F00098FB002002F095FB0D2002F092FB0020DA
:1026000002F08FFB112002F08CFB002002F089FB0E
:10261000192002F086FB002002F083FB212002F04B
:1026200080FB002002F07DFB2D2002F07AFB0020D1
:1026300002F077FB3D2002F074FB002002F071FBFA
:102640005D2002F06EFB002002F06BFB5D2002F0CB
:1026500068FB002002F065FBB12002F06EFB8020D9
:1026600002F05FFB002002F05CFB00E0FEE38B2049
:1026700002F057FB002002F054FB962002F051FBC1
:10268000002002F04EFBB22002F057FB002002F0C7
:1026900048FB002002F045FB022002F042FB002034
:1026A00002F03FFB032002F03CFB002002F039FB6C
:1026B000B32002F042FB002002F033FB002002F0C6
:1026C00030FB002002F02DFB002002F02AFB00204E
:1026D00002F027FB002002F024FB002002F021FB87
:1026E000002002F01EFB002002F01BFB002002F085
:1026F00018FB002002F015FB002002F012FB002066
:1027000002F00FFB002002F00CFB002002F009FB9E
:10271000002002F006FB002002F003FB002002F084
:1027200000FB002002F0FDFA002002F0FAFA00207F
:1027300002F0F7FA002002F0F4FA002002F0F1FAB9
:10274000002002F0EEFAB42002F0F7FA8B2002F03B
:10275000E8FA002002F0E5FA962002F0E2FA002002
:1027600002F0DFFAA12002F0DCFA002002F0D9FA30
:10277000B52002F0E2FA022002F0D3FA002002F0C3
:10278000D0FA032002F0CDFA002002F0CAFA0420A9
:1027900002F0C7FA002002F0C4FAB62002F0CDFA27
:1027A000002002F0BEFA002002F0BBFAB72002F0CF
:1027B000C4FA002002F0B5FA002002F0B2FA3F207D
:1027C00002F0AFFA002002F0ACFA5E2002F0A9FAA3
:1027D000002002F0A6FA642002F0A3FA002002F022
:1027E000A0FA8C2002F09DFA002002F09AFAAC20A8
:1027F00002F097FA002002F094FADC2002F091FA3D
:10280000002002F08EFA702002F08BFA002002F015
:1028100088FA902002F085FA002002F082FAEB207C
:1028200002F07FFA002002F07CFADC2002F079FA54
:10283000002002F076FAB82002F07FFA002002F0C1
:1028400070FA002002F06DFA002002F06AFA00200F
:1028500002F067FA002002F064FA002002F061FA48
:10286000002002F05EFA002002F05BFABA2002F0CB
:1028700064FA242002F055FA002002F052FA0020F7
:1028800002F04FFA002002F04CFAC12002F055FA93
:10289000202002F046FA002002F043FA542002F011
:1028A00040FA002002F03DFAFF2002F03AFA002040
:1028B00002F037FAC22002F040FA0A2002F031FAA0
:1028C000002002F02EFA042002F02BFA002002F081
:1028D00028FAC32002F031FA3C2002F022FA00204C
:1028E00002F01FFA3A2002F01CFA002002F019FA56
:1028F000392002F016FA002002F013FA372002F015
:1029000010FA002002F00DFA3C2002F00AFA002032
:1029100002F007FA362002F004FA002002F001FA71
:10292000322002F0FEF9002002F0FBF92F2002F025
:10293000F8F9002002F0F5F92C2002F0F2F900205D
:1029400002F0EFF9292002F0ECF9002002F0E9F999
:10295000262002F0E6F9002002F0E3F9242002F03C
:10296000E0F9002002F0DDF9242002F0DAF900207D
:1029700002F0D7F9232002F0D4F9002002F0D1F9B7
:102980003C2002F0CEF9002002F0CBF9362002F014
:10299000C8F9002002F0C5F9322002F0C2F9002087
:1029A00002F0BFF92F2002F0BCF9002002F0B9F9C3
:1029B0002C2002F0B6F9002002F0B3F9292002F031
:1029C000B0F9002002F0ADF9262002F0AAF90020AB
:1029D00002F0A7F9242002F0A4F9002002F0A1F9E6
:1029E000242002F09EF9002002F09BF9232002F03F
:1029F00098F9002002F095F9C42002F09EF96220B7
:102A000002F08FF9002002F08CF9052002F089F91C
:102A1000002002F086F9842002F083F9002002F001
:102A200080F9F02002F07DF9002002F07AF91820F8
:102A300002F077F9002002F074F9A42002F071F995
:102A4000002002F06EF9182002F06BF9002002F06D
:102A500068F9502002F065F9002002F062F90C20BC
:102A600002F05FF9002002F05CF9172002F059F93A
:102A7000002002F056F9952002F053F9002002F0F0
:102A800050F9F32002F04DF9002002F04AF9E62057
:102A900002F047F9002002F044F9C52002F04DF998
:102AA000322002F03EF9002002F03BF9442002F00F
:102AB00038F9002002F035F9652002F032F90020E3
:102AC00002F02FF9762002F02CF9002002F029F90B
:102AD000882002F026F9002002F023F9C62002F037
:102AE0002CF9202002F01DF9002002F01AF917201D
:102AF00002F017F9002002F014F9012002F011F998
:102B0000002002F00EF9C72002F017F9002002F0B1
:102B100008F9002002F005F9002002F002F9002077
:102B200002F0FFF8C82002F008F9002002F0F9F8DE
:102B3000002002F0F6F8002002F0F3F8002002F086
:102B4000F0F8C92002F0F9F8002002F0EAF80020BD
:102B500002F0E7F8002002F0E4F8002002F0E1F8CB
:102B6000002002F0DEF8002002F0DBF8002002F086
:102B7000D8F8002002F0D5F8002002F0D2F80020AA
:102B800002F0CFF8002002F0CCF8002002F0C9F8E3
:102B9000002002F0C6F8002002F0C3F8002002F086
:102BA000C0F8002002F0BDF8E02002F0C6F81620C0
:102BB00002F0B7F8002002F0B4F81C2002F0B1F8DF
:102BC000002002F0AEF8212002F0ABF8002002F065
:102BD000A8F8362002F0A5F8002002F0A2F846205E
:102BE00002F09FF8002002F09CF8522002F099F8C1
:102BF000002002F096F8642002F093F8002002F022
:102C000090F87A2002F08DF8002002F08AF88B20EC
:102C100000E0FDE302F085F8002002F082F8992040
:102C200002F07FF8002002F07CF8A82002F079F88A
:102C3000002002F076F8B92002F073F8002002F0CC
:102C400070F8C42002F06DF8002002F06AF8CA2083
:102C500002F067F8002002F064F8D22002F061F878
:102C6000002002F05EF8D92002F05BF8002002F0AC
:102C700058F8E02002F055F8002002F052F8F32056
:102C800002F04FF8002002F04CF8E12002F055F875
:102C9000162002F046F8002002F043F81C2002F053
:102CA00040F8002002F03DF8222002F03AF800201F
:102CB00002F037F8362002F034F8002002F031F844
:102CC000452002F02EF8002002F02BF8522002F0EE
:102CD00028F8002002F025F8642002F022F80020F5
:102CE00002F01FF87A2002F01CF8002002F019F818
:102CF0008B2002F016F8002002F013F8992002F061
:102D000010F8002002F00DF8A82002F00AF80020C8
:102D100002F007F8B92002F004F8002002F001F8F0
:102D2000C42001F0FEFF002001F0FBFFCA2001F0EB
:102D3000F8FF002001F0F5FFD22001F0F2FF0020A3
:102D400001F0EFFFD82001F0ECFF002001F0E9FFD7
:102D5000E02001F0E6FF002001F0E3FFF32001F0A6
:102D6000E0FF002001F0DDFFE22001F0E6FF05209A
:102D700001F0D7FF002001F0D4FF0B2001F0D1FFBC
:102D8000002001F0CEFF1B2001F0CBFF002001F05E
:102D9000C8FF342001F0C5FF002001F0C2FF44202D
:102DA00001F0BFFF002001F0BCFF4F2001F0B9FF90
:102DB000002001F0B6FF612001F0B3FF002001F018
:102DC000B0FF792001F0ADFF002001F0AAFF8820BC
:102DD00001F0A7FF002001F0A4FF972001F0A1FF60
:102DE000002001F09EFFA62001F09BFF002001F0D3
:102DF00098FFB72001F095FF002001F092FFC2205C
:102E000001F08FFF002001F08CFFC72001F089FF47
:102E1000002001F086FFD12001F083FF002001F0A7
:102E200080FFD62001F07DFF002001F07AFFDD2039
:102E300001F077FF002001F074FFF32001F071FF33
:102E4000002001F06EFFE32001F077FF052001F084
:102E500068FF002001F065FF0A2001F062FF0020FA
:102E600001F05FFF1C2001F05CFF00E000E30020A8
:102E700001F057FF332001F054FF002001F051FF13
:102E8000442001F04EFF002001F04BFF502001F0E4
:102E900048FF002001F045FF622001F042FF0020C2
:102EA00001F03FFF782001F03CFF002001F039FFE6
:102EB000882001F036FF002001F033FF972001F059
:102EC00030FF002001F02DFFA62001F02AFF002096
:102ED00001F027FFB72001F024FF002001F021FFBF
:102EE000C22001F01EFF002001F01BFFC72001F0EF
:102EF00018FF002001F015FFD12001F012FF002083
:102F000001F00FFFD52001F00CFF002001F009FFB8
:102F1000DD2001F006FF002001F003FFF32001F0A7
:102F200000FF002001F0FDFEE42001F006FF01207B
:102F300001F0F7FE002001F0F4FE012001F0F1FEA7
:102F4000002001F0EEFE022001F0EBFE002001F077
:102F5000E8FE2A2001F0E5FE002001F0E2FE3C2020
:102F600001F0DFFE002001F0DCFE4B2001F0D9FE75
:102F7000002001F0D6FE5D2001F0D3FE002001F01C
:102F8000D0FE742001F0CDFE002001F0CAFE8420A6
:102F900001F0C7FE002001F0C4FE932001F0C1FE45
:102FA000002001F0BEFEA22001F0BBFE002001F0D7
:102FB000B8FEB32001F0B5FE002001F0B2FEBE2045
:102FC00001F0AFFE002001F0ACFEC42001F0A9FE2C
:102FD000002001F0A6FECD2001F0A3FE002001F0AC
:102FE000A0FED32001F09DFE002001F09AFEDD201E
:102FF00001F097FE002001F094FEF32001F091FE15
:10300000002001F08EFEE52001F097FE002001F087
:1030100088FE002001F085FE002001F082FE0020E5
:1030200001F07FFE022001F07CFE002001F079FE1D
:10303000292001F076FE002001F073FE3C2001F013
:1030400070FE002001F06DFE4B2001F06AFE0020B2
:1030500001F067FE5D2001F064FE002001F061FEDA
:10306000742001F05EFE002001F05BFE842001F080
:1030700058FE002001F055FE932001F052FE002082
:1030800001F04FFEA22001F04CFE002001F049FEAD
:10309000B32001F046FE002001F043FEBE2001F007
:1030A00040FE002001F03DFEC42001F03AFE002069
:1030B00001F037FECD2001F034FE002001F031FE9A
:1030C000D32001F02EFE002001F02BFEDC2001F0C9
:1030D00028FE002001F025FEF32001F022FE002052
:1030E00001F01FFEE62001F028FE112001F019FE7C
:1030F000002001F016FE342001F013FE002001F044
:1031000010FE562001F00DFE002001F00AFE762090
:1031100001F007FE002001F004FE772001F001FE1F
:10312000002001F0FEFD662001F0FBFD002001F013
:10313000F8FD882001F0F5FD002001F0F2FD992056
:1031400001F0EFFD002001F0ECFDBB2001F0E9FDF6
:10315000002001F0E6FD992001F0E3FD002001F0E0
:10316000E0FD662001F0DDFD002001F0DAFD5520D4
:1031700001F0D7FD002001F0D4FD552001F0D1FD74
:10318000002001F0CEFD452001F0CBFD002001F034
:10319000C8FD432001F0C5FD002001F0C2FD442020
:1031A00001F0BFFD002001F0BCFDE72001F0C5FDEE
:1031B000322001F0B6FD002001F0B3FD552001F0F2
:1031C000B0FD002001F0ADFD762001F0AAFD002049
:1031D00001F0A7FD662001F0A4FD002001F0A1FD93
:1031E000672001F09EFD002001F09BFD672001F0AB
:1031F00098FD002001F095FD872001F092FD002050
:1032000001F08FFD992001F08CFD002001F089FD77
:10321000BB2001F086FD002001F083FD992001F024
:1032200080FD002001F07DFD772001F07AFD002077
:1032300001F077FD442001F074FD002001F071FDE4
:10324000562001F06EFD002001F06BFD232001F0FF
:1032500068FD002001F065FD332001F062FD0020D3
:1032600001F05FFD452001F05CFD002001F059FDFB
:10327000E82001F062FD002001F053FD002001F084
:1032800050FD992001F04DFD002001F04AFD8720FE
:1032900001F047FD002001F044FD882001F041FDD0
:1032A000002001F03EFD772001F03BFD002001F001
:1032B00038FD662001F035FD002001F032FD882048
:1032C00001F02FFD002001F02CFDAA2001F029FDC6
:1032D000002001F026FDBB2001F023FD002001F0BD
:1032E00020FD992001F01DFD002001F01AFD66204F
:1032F00001F017FD002001F014FD552001F011FD33
:10330000002001F00EFD552001F00BFD002001F022
:1033100008FD442001F005FD002001F002FD4420DD
:1033200001F0FFFC002001F0FCFC552001F0F9FC4D
:10333000002001F0F6FCE92001F0FFFCAA2001F0DA
:10334000F0FC002001F0EDFC002001F0EAFC002080
:1033500001F0E7FC002001F0F0FCAA2001F0E1FC04
:10336000CF2001F0EAFC002001F0DBFC002001F09E
:10337000D8FC002001F0D5FC002001F0D2FC002098
:1033800001F0CFFC002001F0CCFC002001F0C9FCD2
:10339000002001F0C6FC002001F0C3FC002001F079
:1033A000C0FC002001F0BDFC002001F0BAFC0020B0
:1033B00001F0B7FC002001F0B4FC002001F0B1FCEA
:1033C000002001F0AEFC002001F0ABFCF02001F089
:1033D000B4FC002001F0A5FC502001F0A2FC00206C
:1033E00001F09FFC002001F09CFC002001F099FC02
:1033F000F32001F0A2FC002001F093FCF92001F081
:103400009CFC062001F08DFC102001F08AFC00E0FD
:103410002CE0292001F085FC002001F082FC3A20FC
:1034200001F08BFC552001F07CFC112001F085FCA3
:103430006420FDF76DF9292001F07FFC352001F0B3
:103440007CFC002001F06DFC512001F076FCFF2097
:1034500001F067FC532001F070FC2C2001F061FCAE
:10346000552001F06AFC822001F05BFC2C20FDE37A
:10347000112001F062FC7820FDF74AF9362001F0B6
:103480005CFC482001F04DFC3A2001F056FC552030
:1034900001F047FCF02001F050FCC32001F041FC9A
:1034A000F02001F04AFC962001F03BFCB42001F032
:1034B00044FC012001F035FCB62001F03EFC0A205E
:1034C00001F02FFCA22001F02CFCB72001F035FC0C
:1034D000C62001F026FCB92001F02FFC022001F0EB
:1034E00020FCE02001F01DFCC02001F026FC802023
:1034F00001F017FC162001F014FCC12001F01DFCA6
:10350000192001F00EFCC22001F017FCA72001F0E9
:1035100008FCC52001F011FC162001F002FCE82097
:1035200001F00BFC402001F0FCFB8A2001F0F9FBCC
:10353000002001F0F6FB002001F0F3FB292001F050
:10354000F0FB192001F0EDFBA52001F0EAFB332090
:1035500001F0E7FBE02001F0F0FBF02001F0E1FBDF
:10356000072001F0DEFB0D2001F0DBFB042001F061
:10357000D8FB052001F0D5FB142001F0D2FB36204A
:1035800001F0CFFB542001F0CCFB4C2001F0C9FB33
:10359000382001F0C6FB132001F0C3FB142001F01A
:1035A000C0FB2E2001F0BDFB342001F0BAFBE1206E
:1035B00001F0C3FBF02001F0B4FB102001F0B1FBDF
:1035C000142001F0AEFB0E2001F0ABFB0C2001F04B
:1035D000A8FB082001F0A5FB352001F0A2FB442048
:1035E00001F09FFB4C2001F09CFB262001F099FB91
:1035F000102001F096FB122001F093FB2C2001F02B
:1036000090FB322001F08DFBF02001F096FB3C2076
:1036100001F087FBF02001F090FB692001F081FBB5
:103620007820FDF775F8212001F087FBFEF786BDB5
:10363000A0427CD14FF470435521184601F094FB11
:103640004FF20105AA21284601F08EFB4FF2020A33
:103650005221504601F088FB4FF2030B08215846D7
:1036600001F082FB0121E81C01F07EFB0D214FF4EB
:10367000304001F079FB0D214BF2010001F074FBA9
:103680000D214BF2020001F06FFB34214FF4364064
:1036900001F06AFB34214BF2016001F065FB34213B
:1036A0004BF2026001F060FB0D214FF4314001F05C
:1036B0005BFB0D214BF2011001F056FB0D214BF28B
:1036C000021001F051FB34214FF4374001F04CFB64
:1036D00034214BF2017001F047FB34214BF20270B0
:1036E00001F042FB00214FF4324001F03DFB00218C
:1036F0004BF2012001F038FB00214BF2022001F0D7
:1037000033FB24214FF4384001F02EFB24214BF6EB
:10371000010001F029FB24214BF6020001F024FBFB
:1037200001214FF43F4001F01FFB0F2100E0FDE3BA
:103730004FF4334001F018FB0F214BF2013001F040
:1037400013FB0F214BF2023001F00EFB34214FF43A
:10375000394001F009FB34214BF6011001F004FB64
:1037600034214BF6021001F0FFFA08214FF43540E6
:1037700001F0FAFA08214BF2015001F0F5FA0821A4
:103780004BF2025001F0F0FA03214FF4424001F0F5
:10379000EBFA24214FF43A4001F0E6FA24214BF6EB
:1037A000012001F0E1FA24214BF6022001F0DCFABD
:1037B00000214FF43C4001F0D7FA78214BF601404C
:1037C00001F0D2FA00214BF6024001F0CDFA0021BF
:1037D0004FF43D4001F0C8FA78214BF6015001F05A
:1037E000C3FA00214BF6025001F0BEFA00214FF45B
:1037F0003E4001F0B9FA64214BF6016001F0B4FAE1
:1038000000214FF4514001F0AFFA33214DF2011085
:1038100001F0AAFA00214DF2021001F0A5FA3421BC
:103820004DF2031001F0A0FA00214DF2041001F056
:103830009BFA3A214DF2051001F096FA00214DF263
:10384000061001F091FA4A214DF2071001F08CFAAE
:1038500000214DF2081001F087FA5C214DF20910A9
:1038600001F082FA00214DF20A1001F07DFA812167
:103870004DF20B1001F078FA00214DF20C1001F01E
:1038800073FAA6214DF20D1001F06EFA00214DF2EF
:103890000E1001F069FAE5214DF20F1001F064FA03
:1038A00001214DF2101001F05FFA13214DF21110B9
:1038B00001F05AFA01214DF2121001F055FA54218B
:1038C0004DF2131001F050FA01214DF2141001F0E5
:1038D0004BFA82214DF2151001F046FA01214DF20A
:1038E000161001F041FACA214DF2171001F03CFA0E
:1038F00002214DF2181001F037FA00214DF2191093
:1039000001F032FA02214DF21A1001F02DFA0121D4
:103910004DF21B1001F028FA02214DF21C1001F0AB
:1039200023FA34214DF21D1001F01EFA02214DF24E
:103930001E1001F019FA67214DF21F1001F014FA60
:1039400002214DF2201001F00FFA84214DF22110D6
:1039500001F00AFA02214DF2221001F005FAA42129
:103960004DF2231001F000FA02214DF2241001F073
:10397000FBF9B7214DF2251001F0F6F902214DF2C5
:10398000261001F0F1F9CF214DF2271001F0ECF9EA
:1039900002214DF2281001F0E7F9DE214DF2291045
:1039A00001F0E2F902214DF22A1001F0DDF9F221D5
:1039B0004DF22B1001F0D8F902214DF22C1001F03C
:1039C000D3F9FE214DF22D1001F0CEF903214DF275
:1039D0002E1001F0C9F910214DF22F1001F0C4F999
:1039E00003214DF2301001F0BFF933214DF23110B7
:1039F00001F0BAF903214DF2321001F0B5F96D2151
:103A00004DF2331001F0B0F900214FF4524001F0B3
:103A1000ABF933214DF2012001F0A6F900214DF25E
:103A2000022001F0A1F934214DF2032001F09CF9AC
:103A300000214DF2042001F097F93A214DF20520C2
:103A400001F092F900214DF2062001F08DF94A2192
:103A50004DF2072001F088F900214DF2082001F015
:103A600083F95C214DF2092001F07EF900214DF22D
:103A70000A2001F079F981214DF20B2001F074F94F
:103A800000214DF20C2001F06FF9A6214DF20D201E
:103A900001F06AF900214DF20E2001F065F9E521EF
:103AA0004DF20F2001F060F901214DF2102001F0DC
:103AB0005BF913214DF2112001F056F901214DF26D
:103AC000122001F051F954214DF2132001F04CF96C
:103AD00001214DF2142001F047F982214DF2152009
:103AE00001F042F901214DF2162001F03DF9CA2101
:103AF0004DF2172001F038F902214DF2182001F0A3
:103B000033F900214DF2192001F02EF902214DF276
:103B10001A2001F029F901214DF21B2001F024F9AE
:103B200002214DF21C2001F01FF934214DF21D201D
:103B300001F01AF902214DF21E2001F015F967215A
:103B40004DF21F2001F010F902214DF2202001F06A
:103B50000BF984214DF2212001F006F902214DF2EA
:103B6000222001F001F9A4214DF2232001F0FCF8FC
:103B700002214DF2242001F0F7F8B7214DF2252063
:103B800001F0F2F802214DF2262001F0EDF8CF21EC
:103B90004DF2272001F0E8F802214DF2282001F033
:103BA000E3F8DE214DF2292001F0DEF802214DF28A
:103BB0002A2001F0D9F8F2214DF22B2001F0D4F89F
:103BC00002214DF22C2001F0CFF8FE214DF22D20E4
:103BD00001F0CAF803214DF22E2001F0C5F81021A2
:103BE0004DF22F2001F0C0F803214DF2302001F0FA
:103BF000BBF833214DF2312001F0B6F803214DF22C
:103C0000322001F0B1F86D214DF2332001F0ACF813
:103C100000214FF4534001F0A7F833214DF2013059
:103C200001F0A2F800214DF2023001F09DF834219C
:103C30004DF2033001F098F800214DF2043001F00C
:103C400093F83A214DF2053001F08EF800214DF243
:103C5000063001F089F84A214DF2073001F084F86E
:103C600000214DF2083001F07FF800E0FEE35C2116
:103C70004DF2093001F078F800214DF20A3001F0E0
:103C800073F881214DF20B3001F06EF800214DF2F6
:103C90000C3001F069F8A6214DF20D3001F064F806
:103CA00000214DF20E3001F05FF8E5214DF20F30AA
:103CB00001F05AF801214DF2103001F055F81321AE
:103CC0004DF2113001F050F801214DF2123001F0A7
:103CD0004BF854214DF2133001F046F801214DF21A
:103CE000143001F041F882214DF2153001F03CF81A
:103CF00001214DF2163001F037F8CA214DF217308C
:103D000001F032F802214DF2183001F02DF80021B7
:103D10004DF2193001F028F802214DF21A3001F06D
:103D200023F801214DF21B3001F01EF802214DF263
:103D30001C3001F019F834214DF21D3001F014F857
:103D400002214DF21E3001F00FF867214DF21F30B5
:103D500001F00AF802214DF2203001F005F884212B
:103D60004DF2213001F000F802214DF2223000F036
:103D7000FBFFA4214DF2233000F0F6FF02214DF2AB
:103D8000243000F0F1FFB7214DF2253000F0ECFFB8
:103D900002214DF2263000F0E7FFCF214DF227300F
:103DA00000F0E2FF02214DF2283000F0DDFFDE21BD
:103DB0004DF2293000F0D8FF02214DF22A3000F0F8
:103DC000D3FFF2214DF22B3000F0CEFF02214DF255
:103DD0002C3000F0C9FFFE214DF22D3000F0C4FF61
:103DE00003214DF22E3000F0BFFF10214DF22F3095
:103DF00000F0BAFF03214DF2303000F0B5FF33215F
:103E00004DF2313000F0B0FF03214DF2323000F0BE
:103E1000ABFF6D214DF2333000F0A6FF00214FF4CF
:103E2000544000F0A1FF33214DF2014000F09CFF0F
:103E300000214DF2024000F097FF34214DF2034083
:103E400000F092FF00214DF2044000F08DFF3A2176
:103E50004DF2054000F088FF00214DF2064000F0D1
:103E600083FF4A214DF2074000F07EFF00214DF212
:103E7000084000F079FF5C214DF2094000F074FF2A
:103E800000214DF20A4000F06FFF81214DF20B40FE
:103E900000F06AFF00214DF20C4000F065FFA62102
:103EA0004DF20D4000F060FF00214DF20E4000F099
:103EB0005BFFE5214DF20F4000F056FF01214DF26E
:103EC000104000F051FF13214DF2114000F04CFF63
:103ED00001214DF2124000F047FF54214DF21340F2
:103EE00000F042FF01214DF2144000F03DFF82211D
:103EF0004DF2154000F038FF01214DF2164000F060
:103F000033FFCA214DF2174000F02EFF02214DF27F
:103F1000184000F029FF00214DF2194000F024FF65
:103F200002214DF21A4000F01FFF00E005E30121DD
:103F30004DF21B4000F018FF02214DF21C4000F032
:103F400013FF34214DF21D4000F00EFF02214DF20F
:103F50001E4000F009FF67214DF21F4000F004FFF2
:103F600002214DF2204000F0FFFE84214DF221405D
:103F700000F0FAFE02214DF2224000F0F5FEA421ED
:103F80004DF2234000F0F0FE02214DF2244000F0FB
:103F9000EBFEB7214DF2254000F0E6FE02214DF286
:103FA000264000F0E1FECF214DF2274000F0DCFE7C
:103FB00002214DF2284000F0D7FEDE214DF22940CB
:103FC00000F0D2FE02214DF22A4000F0CDFEF22197
:103FD0004DF22B4000F0C8FE02214DF22C4000F0C3
:103FE000C3FEFE214DF22D4000F0BEFE03214DF236
:103FF0002E4000F0B9FE10214DF22F4000F0B4FE2B
:1040000003214DF2304000F0AFFE33214DF231403C
:1040100000F0AAFE03214DF2324000F0A5FE6D2112
:104020004DF2334000F0A0FE00214FF4554000F067
:104030009BFE33214DF2015000F096FE00214DF21F
:10404000025000F091FE34214DF2035000F08CFE3E
:1040500000214DF2045000F087FE3A214DF2055048
:1040600000F082FE00214DF2065000F07DFE4A2154
:104070004DF2075000F078FE00214DF2085000F09C
:1040800073FE5C214DF2095000F06EFE00214DF2EE
:104090000A5000F069FE81214DF20B5000F064FEE1
:1040A00000214DF20C5000F05FFEA6214DF20D50A4
:1040B00000F05AFE00214DF20E5000F055FEE521B1
:1040C0004DF20F5000F050FE01214DF2105000F063
:1040D0004BFE13214DF2115000F046FE01214DF22E
:1040E000125000F041FE54214DF2135000F03CFEFE
:1040F00001214DF2145000F037FE82214DF215508F
:1041000000F032FE01214DF2165000F02DFECA21C2
:104110004DF2175000F028FE02214DF2185000F029
:1041200023FE00214DF2195000F01EFE02214DF237
:104130001A5000F019FE01214DF21B5000F014FE40
:1041400002214DF21C5000F00FFE34214DF21D50A3
:1041500000F00AFE02214DF21E5000F005FE67211C
:104160004DF21F5000F000FE02214DF2205000F0F1
:10417000FBFD84214DF2215000F0F6FD02214DF2AD
:10418000225000F0F1FDA4214DF2235000F0ECFD8F
:1041900002214DF2245000F0E7FDB7214DF22550E9
:1041A00000F0E2FD02214DF2265000F0DDFDCF21AE
:1041B0004DF2275000F0D8FD02214DF2285000F0BA
:1041C000D3FDDE214DF2295000F0CEFD02214DF24B
:1041D0002A5000F0C9FDF2214DF22B5000F0C4FD31
:1041E00002214DF22C5000F0BFFDFE214DF22D506A
:1041F00000F0BAFD03214DF22E5000F0B5FD102164
:104200004DF22F5000F0B0FD03214DF2305000F080
:10421000ABFD33214DF2315000F0A6FD03214DF2EC
:10422000325000F0A1FD6D214DF2335000F09CFDA5
:1042300000214FF4564000F097FD33214DF201600C
:1042400000F092FD00214DF2026000F08DFD34215E
:104250004DF2036000F088FD00214DF2046000F093
:1042600083FD3A214DF2056000F07EFD00214DF204
:10427000066000F079FD4A214DF2076000F074FD00
:1042800000214DF2086000F06FFD5C214DF20960E5
:1042900000F06AFD00214DF20A6000F065FD812109
:1042A0004DF20B6000F060FD00214DF20C6000F05B
:1042B0005BFDA6214DF20D6000F056FD00214DF290
:1042C0000E6000F051FDE5214DF20F6000F04CFD55
:1042D00001214DF2106000F047FD13214DF21160F5
:1042E00000F042FD01214DF2126000F03DFD54212D
:1042F0004DF2136000F038FD01214DF2146000F022
:1043000033FD82214DF2156000F02EFD01214DF2AA
:10431000166000F029FDCA214DF2176000F024FD5F
:1043200002214DF2186000F01FFD00214DF21960CE
:1043300000F01AFD02214DF21A6000F015FD012176
:104340004DF21B6000F010FD02214DF21C6000F0E8
:104350000BFD34214DF21D6000F006FD02214DF2EF
:104360001E6000F001FD67214DF21F6000F0FCFCB3
:1043700002214DF2206000F0F7FC84214DF2216013
:1043800000F0F2FC02214DF2226000F0EDFCA421CD
:104390004DF2236000F0E8FC02214DF2246000F0B1
:1043A000E3FCB7214DF2256000F0DEFC02214DF266
:1043B000266000F0D9FCCF214DF2276000F0D4FC3C
:1043C00002214DF2286000F0CFFCDE214DF2296081
:1043D00000F0CAFC02214DF22A6000F0C5FCF22177
:1043E0004DF22B6000F0C0FC02214DF22C6000F079
:1043F000BBFCFE214DF22D6000F0B6FC03214DF216
:104400002E6000F0B1FC10214DF22F6000F0ACFCEA
:1044100003214DF2306000F0A7FC33214DF23160F2
:1044200000F0A2FC03214DF2326000F09DFC6D21F2
:104430004DF2336000F098FC5521184600F094FCD2
:10444000AA21284600F090FC5221504600F08CFC36
:104450000821584600F088FC0021E81C00F084FC8C
:10446000CC214FF4314000F07FFC00E062E00021FD
:104470004BF2011000F078FC05214FF4364000F0BB
:1044800073FC70214FF4374000F06EFC70214BF24A
:10449000017000F069FC01214FF4384000F064FC29
:1044A00003214BF6010000F05FFC03214BF60200F4
:1044B00000F05AFC03214BF6030000F055FC0221EA
:1044C0004FF43C4000F050FC00214BF6014000F05E
:1044D0004BFC00214BF6024000F046FCD0214FF48B
:1044E000494000F041FC02214CF6011000F03CFC78
:1044F00050214CF6021000F037FC50214CF603100E
:1045000000F032FC50214CF6041000F02DFC00218C
:104510004FF4545000F028FC55214FF4685000F03F
:1045200023FC4FF4885000F008FC7820FCF7F0F8EA
:104530004FF4245000F001FCB9E0B842FCD1E22075
:1045400000F0FBFB1D2000F0ECFB022000F0E9FB7B
:10455000042000F0E6FB6420FCF7DAF8E02000F02D
:10456000ECFB012000F0DDFB0A20FCF7D1F8E02095
:1045700000F0E3FB032000F0D4FB0C20FCF7C8F8AC
:10458000012000F0DAFB0A20FCF7C2F8E62000F078
:10459000D4FB2F2000F0C5FBFF2000F0C2FBFF2062
:1045A00000F0BFFBB02000F0C8FB202000F0B9FBFA
:1045B000002000F0B6FB032000F0B3FB40F21F30F8
:1045C00000F0AFFB012000F0ACFB40F2DF1000F088
:1045D000A8FB002000F0A5FBB42000F0AEFB0420F7
:1045E00000F09FFB40F21F4000F09BFB002000F01A
:1045F00098FB2E2000F095FB002000F092FB00209D
:1046000000F08FFB002000F08CFB002000F089FB05
:10461000B62000F092FB022000F083FB4FF4037001
:1046200000F07FFB002000F07CFB172000F079FBFE
:10463000152000F076FB002000F073FB002000F056
:1046400070FBF02000F079FB032000F06AFB2920CA
:1046500000F073FBD02000F070FB002000F061FB45
:10466000BE2000F06AFB052000F05BFBFE2000F09E
:1046700058FB012000F055FB002000F052FB002009
:1046800000F04FFB002000F04CFBB82000F055FB81
:10469000032000F046FB012000F043FBBA2000F0AD
:1046A0004CFB012000F03DFB642000F051F818485D
:1046B0008088484505D0B04203D0A04201D0B8421E
:1046C00017D1D8F81C1121F00F01C8F81C11D8F827
:1046D0001C1121F47061C8F81C11D8F81C1141F0AC
:1046E0000301C8F81C11D8F81C1141F40071C8F876
:1046F0001C110020FCF79AFF0122D1030548FCF7AA
:104700006AF9BDE8F05F4FF6FF70FCF755BF000097
:10471000C0000020000402400246012000E0504397
:10472000491EC9B2FBD2704708B54FF0D840B0F867
:104730008000ADF80000BDF8000008BD10B500F025
:10474000FCFA0520FBF7E4FFBDE81040FFF7ECBFE3
:1047500010B50246BE2000F0F0FA052000F0E1FAA4
:104760001046FBF707FE9FED0C1B53EC112BFBF7DC
:104770008FFDFBF70CFE80B200F0D3FA012000F0B1
:10478000D0FAFF2000F0CDFA002000F0CAFABDE810
:104790001040002000F0C5BA666666666666044092
:1047A000F0B5914C00232146A679898846F604028B
:1047B00041F6631549F28147012E01D03EB11FE059
:1047C00091421DD0A9421BD0B94202D118E0A942A2
:1047D00016D1082814D2DFE800F00406080A0C0EEF
:1047E000101206200CE007200AE0042008E0052053
:1047F00006E0012004E0002002E0032000E00220A7
:10480000A1F5134E45F2103C45F21056BEF1410E93
:1048100025D0914223D0614521D0B1421FD0A94279
:104820001DD0B9421BD0A1F5EE4EBEF1890E16D0B7
:10483000A1F5144EBEF1860E11D0A1F5104EBEF5B5
:10484000916E0CD0A1F5EC4EBEF5CB7E07D00828BA
:104850007DD2DFE800F0B4B6B8C1BABCBEC008284B
:1048600012D2DFE800F0110406080A0C0E108023B3
:104870000AE0402308E0C02306E0202304E0602390
:1048800002E0A02300E0E023B14202D14FF45850EF
:1048900000E03620614505D0B14203D0A94201D0E5
:1048A00043F00803914201D0B94201D143F0020321
:1048B000194600F059FAA088A84211D0990604D5EB
:1048C00021886288914209D30AE0B84202D1A179D5
:1048D000012905D021886288914201D92280618016
:1048E000B042608942D100F028FA002000F019FAA5
:1048F0006089401C80B200F020FA002000F011FA1C
:104900006089801C80B200F018FA2088401EC0F335
:104910000F2000F006FA6089C01C80B200F00DFA8A
:104920002078401EC0B200F0FCF9A08900F005FA22
:10493000002000F0F6F9A089401C80B200F0FDF9DB
:10494000002000F0EEF9A089801C80B200E043E076
:1049500000F0F3F96088401EC0F30F2000F0E1F989
:10496000A089C01C80B200F0E8F921E000F0E5F970
:10497000002000F0D6F9002000F0D3F92088401E76
:10498000C0F30F2000F0CDF92078401EC0B200F037
:10499000C8F9A08900F0D1F9002000F0C2F9002088
:1049A00000F0BFF96088401EC0F30F2000F0B9F995
:1049B000A078BDE8F040401EC0B200F0B2B930238C
:1049C0000AE0102308E0202306E0382304E028232F
:1049D00002E0182300E00823BDE8F040032043F480
:1049E000805100F0C1B90000C00000202DE9F04363
:1049F000DFF87C810C4602464FEA1129B8F8040022
:104A00004146150A4B89A0F51346413E2BD0A0F52F
:104A1000A641103927D0A0F5EE41893923D0A0F561
:104A2000EE4196391FD0A0F51441863920D0A0F56B
:104A3000144188391CD04146A0F5D0470E888979A9
:104A4000B61A761E043F28D0A0F51447813F24D023
:104A5000A0F5C857633F35D0A0F5AA47103F5CD0FA
:104A6000012978D078E0184600F067F928461BE065
:104A7000184600F062F9284600F053F9D0B200F071
:104A800050F9B8F80000401EC0F30F2000F049F9BB
:104A900098F80000401EC0B224E0012900D1B2B253
:104AA000184600F04AF9100A00F03BF9D0B200F0C5
:104AB00038F9B8F80C0000F040F9484600F031F938
:104AC000E0B226E00029D3D1B2B2184600F035F9A1
:104AD000002000F026F9002000F023F9100A00F071
:104AE00020F9D0B200F01DF9B8F80C0000F025F95B
:104AF000484600F016F9E0B200F013F9B8F80200E9
:104B0000401EC0F30F2000F00CF998F80200401E80
:104B1000C0B2BDE8F04300F004B9184600F00DF94A
:104B2000284600F0FEF8B8F80A00401C80B200F0F9
:104B300004F9D0B200F0F5F8B8F80C0000F0FDF878
:104B4000484600F0EEF8B8F80C00401C80B200F0C7
:104B5000F4F8B5E7FFE7B2B21146184600F004F9E1
:104B6000B8F80C002146BDE8F04300F0FDB80000A5
:104B7000C00000202DE9FF4F1D460C468A4658070D
:104B800000D0012000EBD500690810FB01F0203AAD
:104B900000F0FF09D0B20026DFF8A4B002904BE08D
:104BA0000C2D11D0102D14D0182D17D0202D45D13B
:104BB0002449029801EBC0104FF00008875D3806C9
:104BC00013D52148026814E00298204900EB400008
:104BD00008E01F49029801EB0010EDE702981D491B
:104BE00000EBC00001EB8000E6E70D9828B91648FD
:104BF000426821460098FCF771FE7806070E641C97
:104C0000BBF80200A4B2A04218D9A4EB0A00A84243
:104C100009D100985446401C80B20090BBF80010A7
:104C200081420BD906E008F1010000F0FF08B8F15D
:104C3000080FC4D3761CF6B24E45B1D3BDE8FF8F42
:104C4000C00000208E74000818000020CE5C000810
:104C500042610008326700082DE9FF4F81B000264D
:104C6000DDF838A01D46934681463446B0464FEAEB
:104C70005A0727E0281B401EC1B20A20FFF74CFD4F
:104C8000BBFBF0F00A21B0FBF1F201FB120026B9E8
:104C9000691E8C4201DA48B101263030C2B207FBEE
:104CA000049080B25346CDF8008006E007FB0490E4
:104CB00080B253462022CDF800800299FFF75AFFB8
:104CC000641CE4B2AC42D5D305B0BDE8F08F2DE949
:104CD000F84F044600F0FF0910190D46DDE90AB649
:104CE0001FFA80F8581987B24FF0000A12E04445C5
:104CF00003D305EB0B004C4685B2BD420FD25B4699
:104D000029462046CDF800A0FFF734FF04EB5B00F6
:104D100084B2761C3278A2F120005E28E7D9BDE883
:104D2000F88F01B5BDF80000ADF80000BDF8000037
:104D30004FF0D841A1F8800008BD01B5BDF80000D2
:104D4000ADF80000BDF800004FF0D841A1F87E009A
:104D500008BD000003484FF0D8410089A1F87E004B
:104D600070470000C00000204FF0D84222F87E0FAC
:104D70005180704710B58EB01C216846FBF77DFA54
:104D80001C2107A8FBF779FA1A484FF0204110229E
:104D9000016019494160062181600021C160C0E9BC
:104DA00004128161C16113020162C0E90913930217
:104DB000C0E90B13416381634164022000900F201E
:104DC000CDE9010203AC112384E80E00042406910E
:104DD000CDE9074009AC092084E80F000D9107AA2E
:104DE00069460448FCF73EF9002801D0FBF7BDFBFB
:104DF0000EB010BD28000020040100A02DE9F043F2
:104E000087B014216846FBF738FA37480024016858
:104E100041F010010160016801F010010591016885
:104E200041F020010160016801F020010591016855
:104E300041F080010160016801F080010591016885
:104E400041F001010160016801F001010591016873
:104E500041F002010160016801F002010591016861
:104E600041F008010160016801F008010591016845
:104E700041F0400101600068DFF8708000F0400000
:104E80004FF4C0660590012231464046FBF7A3FD72
:104E9000DFF85C904FF40047002239464846FBF7A4
:104EA0009AFD1C2001258DE8310069461148FBF769
:104EB00095FCCDE90065CDE9025469464046FBF713
:104EC0008DFC02200095CDE9014069460A48FBF7B8
:104ED00085FC0097CDE90154694648460394FBF7E9
:104EE0007DFC07B0BDE8F08330380240001402407A
:104EF0000004024000100240000002400C4810B5BF
:104F00000A4901604FF4E1314160002181600C22C7
:104F1000C160C0E904128161C161FCF721FA002877
:104F200003D0BDE81040FBF720BB10BD00100140CE
:104F300078000020FEE7FEE77047704730B516287E
:104F40000FD21B290DD20A4B0122B3F890410BE07E
:104F500033F82250854206D103EB82056D888D42DD
:104F600001D1012030BD521C9442F1DC002030BD43
:104F7000CE0000202DE9F0411625154C1B2600BF60
:104F8000FBF750F990FBF5F105FB1100A4F8940133
:104F9000FBF748F990FBF6F106FB110081B2A4F88B
:104FA00096110022B4F89031B4F894010AE000BFE1
:104FB00034F82270B84204D104EB82077F88B942EA
:104FC000DED0521C9342F3DCBDE8F041FBF788BA17
:104FD000CE0000201CB54FF49173E62214210A2064
:104FE000FCF760FC40F22113E52215210B20FCF7B1
:104FF00059FC102009A1CDE900010346C822002177
:105000000A20FFF764FE14200090064804230021C4
:10501000B0F89A211920FFF71FFE1CBD53636F7271
:10502000653A0000CE0000202DE9F0478EB0302216
:10503000374901A8FBF708F90024462701AE50259F
:105040004FF4FC684FF062094FF0580A06EB8400F9
:10505000CDF80080408800EB800109EB810083B22D
:1050600036F8240005EB810100EB80000AEB80029A
:1050700007EB800092B289B280B2FCF7F9FC641CA5
:105080000B2CE3D3BDF8300000EB800007EB800071
:1050900084B2BDF8320000EB800005EB800085B2E1
:1050A0001F20009004F1120005F1120882B21FFACD
:1050B00088F329462046FCF7DBFCE01D82B24FF066
:1050C0000009EF1D6E1D601DBBB2B1B280B2CDF8FC
:1050D0000090FCF7CDFC04F10F0082B2801EBBB241
:1050E000B1B280B2CDF80090FCF7C2FC4FF478402A
:1050F000009004F10B00183582B20934ABB21FFAEC
:1051000088F1A0B2FCF7B4FC0EB0BDE8F087000057
:1051100010A400087CB51B4D01204FF4917385F855
:1051200098014FF6FF700090E62214210A20FCF748
:105130009FFC202014A1CDE900010346C822642170
:105140002D20FFF7C4FD102412A0CDE90040C82295
:10515000234611461E20FFF7BAFD0094B5F89A21A8
:105160000423C8218220FFF777FD0EA0CDE900407F
:105170001023C822E6211E20FFF7A9FDBDE87C40D0
:10518000FFF728BFCE00002047616D65204F766590
:105190007221000046696E616C2053636F72653A3C
:1051A000000000005072657373204B455930207425
:1051B0006F204D61696E4D656E75000010B500F091
:1051C0009DF90249002081F89C0110BDCE0000200D
:1051D0002DE9FC5F794CB4F89011B4F8008004EB31
:1051E000810131F8047D4E88CDF80480658894F8FB
:1051F0009201AB4630B1012806D0022807D003281F
:105200000CD107E06D1E00E06D1CADB206E0A8F108
:10521000010801E008F101081FFA88F82946404614
:10522000FFF78CFE4FF6FF7A38B3012184F898110E
:105230009023AF2278213720CDF800A0FCF718FC8E
:10524000A623BE2296211E20CDF800A0FCF710FC5C
:1052500018205BA1CDE900010346C8227821372040
:10526000FFF735FD102059A1CDE900010346C82202
:1052700096211E20FFF72BFD9AE0B4F8900107E07D
:1052800004EB800131F8042D24F820204A88CA80DC
:10529000401E0028F4DCA4F800806580B4F8940176
:1052A0004FF00A09804521D1B4F8960185421DD1FD
:1052B000B4F890010423002124F82070B4F8900180
:1052C00004EB80004680B4F89001401CA4F89001E3
:1052D000B4F89A010A3082B2A4F89A211020009002
:1052E0003C20FFF7B9FCFFF745FE1EE006EB860108
:1052F0001D2000EB410083B207EB8700132202EB75
:105300004002142505EB410109EB400092B289B23D
:1053100080B2CDF800A0FCF7ABFB27B1152F02D06F
:105320000EB11A2E01D1FFF755FE4FF4FC600BEBC6
:105330008B011D25009005EB410083B201981327D6
:1053400000EB800007EB4002142606EB410109EB5D
:10535000400092B289B280B2FCF78AFB019838B162
:10536000152805D0BBF1000F02D0BBF11A0F01D1F7
:10537000FFF730FE1F200090608800EB800005EBF7
:1053800040018BB2218806EB400001EB810507EB61
:1053900045018AB281B209EB450080B2FCF768FB97
:1053A000208828B1152803D0608808B11A2803D1B5
:1053B000BDE8FC5FFFF70EBEBDE8FC9FCE000020FD
:1053C00047616D65204F76657221000050726573EC
:1053D00073204B45593020746F207265737461726D
:1053E000740000002DE9F041434C0025012794F89A
:1053F0009C01032668B1012841D0022807D1FCF79F
:1054000073F8012803D100F079F884F89C51BDE8C5
:10541000F081FCF769F80128F9D184F89C71A4F8AF
:10542000906184F89261A4F89A5184F898514FF6EB
:10543000FF70FCF7C1F8FFF7CDFD0B2020800D2099
:10544000608001254FF4FC660CE0208804EB8502A7
:10545000401B80B224F82500618851803246FBF75A
:1054600063F86D1CB4F89001A842EEDC61882088D6
:105470001F22FBF759F8BDE8F041FFF77BBD94F818
:1054800098014FF0020828B184F89C81BDE8F041F2
:10549000FFF740BEFCF776F8012806D194F8920198
:1054A000012802D084F892511EE0FCF737F8012859
:1054B00005D194F8920110B184F8927114E0FCF7D0
:1054C00047F8012806D194F89201032802D084F805
:1054D000928109E0FCF708F8012805D194F89201BF
:1054E000022801D084F89261FFF772FEBDE8F04116
:1054F000C820FBF70DB90000CE0000207CB54FF6A8
:10550000FF70FCF759F84FF49173E62214210A203A
:10551000FCF7C8F9202022A1CDE900010346C822EA
:1055200028211420FFF7D3FBFFF77EFD102420A0D5
:10553000CDE90040C822234611461E20FFF7C7FBD5
:1055400020A0CDE900401023C822E6211E20FFF74D
:10555000BEFB1FA0CDE900401023C822FA211E2067
:10556000FFF7B5FB1DA0CDE900404FF48775102370
:10557000C82229461E20FFF7AAFB1BA0CDE9004048
:105580001023C822FA218220FFF7A1FB19A0CDE940
:1055900000401023C82229468220FFF798FB7CBDDB
:1055A00047524545445920534E414B4500000000A9
:1055B0005072657373204B45593020746F205374BB
:1055C00061727400436F6E74726F6C733A00000006
:1055D0004B45595F55503A20557000004B455931A5
:1055E0003A20446F776E00004B4559323A204C65A3
:1055F000667400004B4559303A2052696768740060
:10560000FBF7F4B930B593B030216846FAF735FEB0
:1056100014210CA8FAF731FE1D480025016841F05D
:1056200080510160006800F08050119019480168B5
:1056300041F4804101600068022400F48040119030
:105640000120039010200490009406940820CDE9D6
:1056500007507820CDE9090404200B906846FBF739
:105660004BFB08B172B6FEE70CA90F2081E83100B0
:105670004FF4A0500F904FF48050109003210CA8CD
:10568000FBF74EFA002801D072B6FEE713B030BD2A
:1056900040380240007000400248016841F4700147
:1056A0000160704788ED00E010B5806B0021C18576
:1056B000C184FBF71CFD10BD01680C3151E8002FBF
:1056C00022F4907241E80023002BF5D101681431D7
:1056D00051E8002F22F0010241E80023002BF5D110
:1056E000016B012909D101680C3151E8002F22F02A
:1056F000100241E80023002BF5D1202180F8421050
:1057000000210163704708B590F84210222901D0AA
:10571000022008BD82684FF480539A4201D101698A
:1057200021B1816A9A421BD04AB10AE00268816ABB
:105730005268C2F308020A80816A891C08E0026983
:1057400072B10268526802F07F020A70816A491CD5
:105750008162C18D491E0904090CC18503D01BE07B
:1057600002685268F1E70168CA6822F02002CA6044
:105770000168CA6822F48072CA6001684A6922F02E
:1057800001024A61202180F8421000214163026B2E
:10579000012A03D0FBF754FE002008BD0163016815
:1057A0000C3151E8002F22F0100241E80023002BB9
:1057B000F5D101680A68D20602D50A6849680091E5
:1057C000818DFBF793FCE7E770B50446006801693B
:1057D000E26821F44051114301612169A068E26946
:1057E00008436169114308432168CA6849F20C63A0
:1057F0009A430243CA6020684169A26921F440715A
:105800001143416131492068884202D030498842C1
:1058100002D1FBF72FFA01E0FBF71CFAE269002343
:10582000192164253226B2F5004F626828D0A0FB0A
:105830000101930F9200FAF7C3FC0146B0FBF5F0AB
:105840006FF01802504301EB800006EB0010B0FB34
:10585000F5F000F0F002B1FBF5F002EB0012B1FB45
:10586000F5F06FF01803584301EB800006EB0010D1
:10587000B0FBF5F000F00F0021681044886070BDA7
:10588000A0FB010192185B41FAF79AFC0146B0FBBC
:10589000F5F00201B1FBF5F06FF01803584301EB8E
:1058A000800006EBC000B0FBF5F000F0F80002EB62
:1058B0004002B1FBF5F0584301EB800006EBC0005D
:1058C000B0FBF5F000F00700D6E700000010014043
:1058D000001401402DE9F843984617460D4604464A
:1058E000089E24E0701C22D0FBF77AF8A0EB080099
:1058F000B0421AD8CEB12068C168490717D5802DAB
:1059000015D0402D13D00168C94309070FD4016891
:105910000025406800902046FFF7CEFE0820606416
:1059200084F840500120BDE8F8830320FBE720689D
:10593000006835EA000004D00020B842D2D0002030
:10594000F1E70120F9E700000148FBF7D1BB0000B7
:1059500078000020FEE700000FB4054B10B503A946
:10596000044A029800F028F810BC5DF814FB00000F
:10597000795C0008240000200907090E002804DBD8
:1059800000F1E02080F80014704700F00F0000F1F3
:10599000E02080F8141D704702E008C8121F08C1FB
:1059A000002AFAD170477047002001E001C1121FA0
:1059B000002AFBD1704700002DE9FF4F8DB09B46B8
:1059C0000F460446002606E025280BD05A460F99BC
:1059D0009047641C761C20780028F5D111B0304621
:1059E000BDE8F08F0025A8460122984900E0054354
:1059F00014F8013F203B02FA03F00842F7D1207867
:105A00002E2817D114F8010F45F004052A280ED0CE
:105A10006FF02F022078A0F1300109290AD808EB95
:105A2000880102EB410100EB0108641CF2E757F822
:105A3000048B641C20786C280DD004DC4C2812D018
:105A40006A2811D104E074280DD07A280CD10AE01C
:105A500045F4001507E0617845F48015814202D1D4
:105A6000641C05F58015641C2278692A45D008DC81
:105A7000002AB3D0582A69D0632A10D0642A08D1EA
:105A80003BE0702A67D0732A13D0752A5CD0782A3D
:105A90005CD010465A460F999047761CD3E017F811
:105AA000040B8DF8000000208DF80100E94601206C
:105AB00003E057F8049B4FF0FF3069074FF00005F3
:105AC00001D40AE06D1C45450DDA8542FADB19F870
:105AD00005100029F6D106E06D1C8542FCDB19F8A3
